:03000000021BE2FE
:0C1BE200787FE4F6D8FD758166021C29AE
:0C000300000000000000000000000000F1
:0B004200EF1FAC0670011E4C70F62290
:1024E80090642812115390642874FF121120EC4D47
:0E24F8004E4F60097FAA7E0512004280E92245
:1017FE00907120E04480F07F057E001200427F0051
:10180E007E007D007C001224E875A75575AC5C90B7
:10181E0071327450F09071307403F0907136742FF1
:10182E00F090715C7403F090715BE054FCF07F18E3
:10183E00EF2466FDE434718D82F583E4F00FEFB48E
:10184E0033EE904011E4935407FF90711CE054F86E
:10185E004FF0904017E493547FFF90711DE0548039
:10186E004FF0904010E493FF5401C433333354804F
:10187E00FE907123E0547F4EF0EFC313543F44406B
:10188E00FFA3E054804FF0904012E493FF540FFEFC
:10189E00907146E054F04EF0EFC4540FFF90714F2C
:1018AE00E054F04FF0904013E493543FFF9071409A
:1018BE00E054C04FF0904014E493907126F09040A5
:1018CE0015E493907128F0904016E49390712AF0ED
:0118DE0022E7
:101F1C0078D0E24480F278E3E254F3F278E1E244E0
:101F2C0020F278E7E24420F278E5E254F3F2E2445E
:101F3C0008F29071787416F0E5B8543F42B843A893
:101F4C0008D2AF907130E054FCF0907120E0547FD7
:101F5C00F043BA02E04480F0438E10907130E044BC
:031F6C0003F0225D
:0300180002257A44
:0B257A00C0E0C0D075D000C000C0075A
:0425850078E6E2F220
:09258900D007D000D0D0D0E03220
:1025D20078D2E254FBF2E24404F2907187E4F0D242
:0225E200912244
:1025060078D2E254FBF2E24404F2907187E4F07868
:0D251600D0E24402F208E24402F2D2912227
:1025230078D2E254EFF2E24410F2907188E4F0784A
:0D253300D0E24404F208E24404F2D2922205
:1025400078C2E254FBF2E24404F290717FE4F07846
:0D255000C0E24402F208E24402F2C281221D
:10255D0078E3E254EFF2E24410F2907194E4F078F3
:0D256D00E0E24440F208E24440F2C2A6223F
:0D26640078C3E254CFF278C0E24440F22285
:0D26710078C3E2543FF278C0E24480F222C8
:0D267E0078D2E254FCF278D0E24401F2225E
:0D268B0078D2E2543FF278D0E24408F22207
:0D26980078D3E254FCF278D0E24410F22234
:0D26A50078D3E2543FF278D0E24480F22274
:0D26B20078E2E254F3F278E0E24402F22212
:0D26BF0078E2E254CFF278E0E24404F22227
:0D26CC0078E2E2543FF278E0E24408F222A6
:0D26D90078F2E254FCF278F0E24401F222C3
:0D26E60078F2E254F3F278F0E24402F222BE
:071AB9004464780000000006
:1022A600E5B154F342B17890E254F3F2E24414F209
:1022B600E254FCF2E24401F208E2547FF2E24420E6
:1022C600F278947498F208E4F27892F208F2789030
:0E22D600E2541FF2E244A0F253A8DFD2AF227E
:102617007890E2541FF2E244C0F243A820D2AF22DE
:10002A007890E2541FF2E244A0F27892E4F208F2E5
:04003A0053A8DF22C6
:03001E000220615C
:10206100C0E0C0F0C083C082C0D075D000C000C045
:1020710004C005C006C0077891E230E71DE2448044
:10208100F29064781210F6EF2401FFE43EFEE43D85
:10209100FDE43CFC906478121153D007D006D005C2
:0F20A100D004D000D0D0D082D083D0F0D0E032A5
:071AC00044647C00000000FB
:1022E400E5B154CF42B1789CE254F3F2E24414F2E3
:1022F400E254FCF2E24401F208E2547FF2E24420A8
:10230400F278A07498F208E4F2789EF208F2789CCD
:0E231400E2541FF2E244A0F253A8BFD2AF225F
:10262700789CE2541FF2E244C0F243A840D2AF22A2
:1025BE00789CE2541FF2E244A0F2789EE4F208F214
:0425CE0053A8BF222D
:030021000220B00A
:1020B000C0E0C0F0C083C082C0D075D000C000C0F6
:1020C00004C005C006C007789DE230E71DE24480E9
:1020D000F290647C1210F6EF2401FFE43EFEE43D32
:1020E000FDE43CFC90647C121153D007D006D0056F
:0F20F000D004D000D0D0D082D083D0F0D0E03256
:071AC70044648000000000F0
:10221E00E5B254FC42B2907100E054F3F0E0441485
:10222E00F0E054FCF0E04401F0A3E0547FF0E04411
:10223E0020F090710474E0F0A3741DF0907102E42C
:10224E00F0A3F0907100E0541FF0E044A0F053A909
:04225E00FED2AF22DB
:1025E400907100E0541FF0E044C0F043A901D2AF61
:0125F40022C4
:10259200907100E0541FF0E044A0F0907102E4F06A
:0625A200A3F053A9FE2284
:10235F0078E3E254FCF2E24401F2907192740FF0D0
:10236F0075D1049071057401F09071047476F0903A
:10237F007107E4F090710674BBF090710174A0F0D6
:07238F0090710074FEF022C2
:03002400021FC1F7
:101FC100C0E0C0F0C083C082C0D075D000C000C0E6
:101FD10004C005C006C007907101E030E71DE04470
:101FE10080F09064801210F6EF2401FFE43EFEE4DD
:101FF1003DFDE43CFC906480121153D007D006D023
:1020010005D004D000D0D0D082D083D0F0D0E0323F
:071ACE0044648400000000E5
:10226200E5B254F342B2907108E054E3F0E0441452
:10227200F0E054FCF0E04401F0A3E0547FF0E044CD
:1022820020F053A9FD90710C749BF0A3743BF09065
:10229200710AE4F0A3F0907108E0541FF0E044A04A
:0422A200F0D2AF22A5
:1025F500907108E0541FF0E044C0F043A902D2AF47
:0126050022B2
:1025A800907108E0541FF0E044A0F090710AE4F044
:0625B800A3F053A9FD226F
:03002700022011A3
:10201100C0E0C0F0C083C082C0D075D000C000C095
:1020210004C005C006C007907109E030E71DE04417
:1020310080F09064841210F6EF2401FFE43EFEE488
:102041003DFDE43CFC906484121153D007D006D0CE
:1020510005D004D000D0D0D082D083D0F0D0E032EF
:101AD500603263C400000000000000000000000048
:101AE50000000000000000000000000000000000F1
:101AF50000000000000000000000000000000000E1
:0D1B05000000000000004263F60000C10B6C
:0E265600906450EFF01226F3906450E0FF22E3
:1024800078D2E2F2E24404F2907187E04403F090E3
:102490007176E0440BF043AA40D2AF75F60175F5B2
:0524A0009F75F21122FE
:0D26F300E5F430E4FB8FF7E5F430E4FB2262
:03004E00022194F8
:10219400C0E0C0F0C083C082C0D075D000C000C011
:1021A40006E5F430E5209063F6E475F00112106B57
:1021B400FE74C425F0F58274633EF583E5F7F0E51B
:1021C400F7B40A02D20BD006D000D0D0D082D0838C
:0521D400D0F0D0E03264
:0F2647006164635F76616C203D2025640D0A009D
:071B120042601D0000C10C40
:1024010078E2E244C0F2907123E054D8F0E054BF86
:10241100F0E0441EF09071227407F0759913786909
:0F242100E24448F27F017E007D007C000224E847
:1024A5007869E24401F2786BE230E1FA7402F2AF46
:1024B50093EF75F010A4FFAEF0E594C4540FFDEF53
:0324C5004DFF22A6
:101F6F00E4906018F0F0906019121112C000122462
:101F7F00A5E4FCFDD000121081906019121153904E
:101F8F006018E0C39401400FA31210F678011210ED
:101F9F00D0906019121153906018E004F0E0C394D0
:101FAF002040C39060191210F690601DEEF0A3EF61
:011FBF00F031
:011FC00022FE
:01001B0022C2
:10245A00121F6F7BFF7A26794790601DE0FFA3E089
:10246A0090642BCFF0A3EFF012079F7FF47E017DDB
:06247A00007C000224E8D2
:1026060075AF3F8FAF75AEB975A402E5A530E1FB96
:0126160022A1
:1023960090646F1211A775AF3F8FAF906472E0C360
:1023A60094014022E5A530E0FB90646FE475F001EE
:1023B60012119012102AF5A675AEB975A401906493
:0723C60072E014F080D52243
:1023CD009064741211A7906477E06027AE070FEE4A
:1023DD002400FDE4343F8D82F583E493FE90647414
:1023ED00E475F001121190EE121043906477E01431
:0423FD00F080D32277
:080051001217FE121EC580FE0D
:101B190042646200004464570000000041645B00B5
:071B290044645C00000000B1
:1018DF0078E3E2543FF2E24440F278BC7401F278CC
:1018EF00C2E2543FF278F2E254FCF278D2E254FCB6
:1018FF00F278C3E2543FF218E24440F278F2E24445
:10190F0001F278D2E24401F278C3E24440F29071DE
:10191F00817412F090719604F090718604F09071BA
:10192F008504F078AA7401F278F9F278D9F278AEDA
:10193F00F2907195741AF0907132E04410F075D9ED
:10194F005590715EE04404F075D9BB907132E0445C
:10195F0010F07807740FF278097401F27C64EC7858
:10196F000DF2187460F2187481F2187401F2906419
:08197F0060740FF0A3E4F022F4
:09000F0012254012255D02248037
:10263700906462E0FFA3E0906460CFF0A3EFF02224
:10006000AF1BAE1AAD19AC189064641211539064B2
:100070006812115F00000000E490646CF0A3F0903F
:1000800064641210F6EC4D4E4F700302040E90643F
:100090005BE0600302040E7F4BFEFDFCA312111215
:1000A000C31210BF400302040E90646812115F0077
:1000B0000000007F207EA17D077C00906468121103
:1000C00012C31210BF50717F0A7E007D007C0012A7
:1000D00024E81224C8AF1BAE1AAD19AC18906464A2
:1000E000121112C31210BF704F90645C1210F6EF21
:1000F0002401FFE43EFEE43DFDE43CFC90645C1220
:100100001153E47F4BFEFDFC90645C121112D3127C
:1001100010BF400890645B7401F0801C906468120A
:1001200010F6EF2401FFE43EFEE43DFDE43CFC90CC
:1001300064681211530200B3E47F4BFEFDFC90642F
:100140005C121112D31210BF400990645B7401F06D
:1001500002040E90645C12115F00000000E47F0155
:10016000FEFDFC906464121112C31210BF60030202
:10017000020A906462E06401F090646812115F000A
:10018000000000E47F2C7E01FDFC906468121112D7
:10019000C31210BF400302040E7F017E007D007C6D
:1001A000001224E81224C8AF1BAE1AAD19AC189087
:1001B0006464121153E47F01FEFDFC90646412112B
:1001C00012C31210BF7027E4FFFEFDFC906464129E
:1001D0001112C31210BF70030207331224C8AF1BE1
:1001E000AE1AAD19AC1890646412115380D99064A2
:1001F000681210F6EF2401FFE43EFEE43DFDE43C0E
:10020000FC906468121153020183E47F10FEFDFC30
:10021000906464121112C31210BF60030202B790FF
:100220006462E06402F090646812115F00000000F4
:10023000E47F2C7E01FDFC906468121112C3121041
:10024000BF400302040E7F017E007D007C0012246B
:10025000E81224C8AF1BAE1AAD19AC189064641232
:100260001153E47F10FEFDFC906464121112C3125E
:1002700010BF7027E4FFFEFDFC906464121112C3EE
:100280001210BF70030207331224C8AF1BAE1AADA1
:1002900019AC1890646412115380D99064681210DC
:1002A000F6EF2401FFE43EFEE43DFDE43CFC9064F7
:1002B00068121153020230E47F20FEFDFC9064645A
:1002C000121112C31210BF6003020364906462E053
:1002D0006404F090646812115F00000000E47F2C59
:1002E0007E01FDFC906468121112C31210BF40031E
:1002F00002040E7F017E007D007C001224E812249F
:10030000C8AF1BAE1AAD19AC18906464121153E457
:100310007F20FEFDFC906464121112C31210BF70A6
:1003200027E4FFFEFDFC906464121112C31210BF9B
:1003300070030207331224C8AF1BAE1AAD19AC18F4
:1003400090646412115380D99064681210F6EF24FF
:1003500001FFE43EFEE43DFDE43CFC9064681211C4
:10036000530202DDE47F40FEFDFC90646412111232
:10037000C31210BF600302040E906462E06408F0D0
:1003800090646812115F00000000E47F2C7E01FD84
:10039000FC906468121112C31210BF50717F017E6D
:1003A000007D007C001224E81224C8AF1BAE1AADF9
:1003B00019AC18906464121153E47F40FEFDFC9068
:1003C0006464121112C31210BF7027E4FFFEFDFC1B
:1003D000906464121112C31210BF7003020733122B
:1003E00024C8AF1BAE1AAD19AC1890646412115337
:1003F00080D99064681210F6EF2401FFE43EFEE419
:100400003DFDE43CFC90646812115302038A906441
:100410005BE0640160030206DCFFFEFDFC906464A7
:10042000121112C31210BF70030206DC9064641232
:1004300010F6906457121153E47F01FEFDFC9064A6
:1004400064121112C31210BF60030204E17F4BFE5D
:10045000FDFC90645C121112C31210BF401CE47FBB
:100460005AFEFDFC90645C121112C31210BF500AB8
:10047000906462E06401F0122637E4FFFEFDFC9018
:100480006464121112C31210BF70030207307F0A96
:100490007E007D007C001224E890645C1210F6EF70
:1004A0002401FFE43EFEE43DFDE43CFC90645C126C
:1004B00011531224C8AF1BAE1AAD19AC1890646466
:1004C000121153E47F57FEFDFC90645C121112C3BD
:1004D0001210BF40A590645C12115F0000004B80B9
:1004E00099E47F10FEFDFC906464121112C3121097
:1004F000BF600302058A7F4BFEFDFC90645C121115
:1005000012C31210BF401CE47F5AFEFDFC90645CD5
:10051000121112C31210BF500A906462E06402F01C
:10052000122637E4FFFEFDFC906464121112C31220
:1005300010BF70030207307F0A7E007D007C00122E
:1005400024E890645C1210F6EF2401FFE43EFEE420
:100550003DFDE43CFC90645C1211531224C8AF1BB7
:10056000AE1AAD19AC18906464121153E47F57FEB3
:10057000FDFC90645C121112C31210BF40A5906480
:100580005C12115F0000004B8099E47F20FEFDFCAF
:10059000906464121112C31210BF60030206337F0D
:1005A0004BFEFDFC90645C121112C31210BF401C84
:1005B000E47F5AFEFDFC90645C121112C31210BF5E
:1005C000500A906462E06404F0122637E4FFFEFDF6
:1005D000FC906464121112C31210BF700302073042
:1005E0007F0A7E007D007C001224E890645C12107B
:1005F000F6EF2401FFE43EFEE43DFDE43CFC9064A4
:100600005C1211531224C8AF1BAE1AAD19AC18906E
:100610006464121153E47F57FEFDFC90645C121178
:1006200012C31210BF40A590645C12115F0000005D
:100630004B8099E47F40FEFDFC906464121112C36C
:100640001210BF60030207307F4BFEFDFC90645C1C
:10065000121112C31210BF401CE47F5AFEFDFC9021
:10066000645C121112C31210BF500A906462E064FD
:1006700008F0122637E4FFFEFDFC906464121112AC
:10068000C31210BF70030207307F0A7E007D007C1A
:10069000001224E890645C1210F6EF2401FFE43E9F
:1006A000FEE43DFDE43CFC90645C1211531224C84E
:1006B000AF1BAE1AAD19AC18906464121153E47FED
:1006C00057FEFDFC90645C121112C31210BF40A5CE
:1006D00090645C12115F0000004B809990645BE0B5
:1006E000B4014DE4FFFEFDFC906464121112C312CC
:1006F00010BF703C9064571210F61211B007190029
:100700000000010719000000100719000000200771
:10071000190000004000000719E490645BF0A31288
:10072000115F0000000090645712115F000000008C
:0307300012263757
:0107330022A3
:1024300025730A00000009C4006400C80101F4000B
:102440004B000A0000010F0405040000003C0004DA
:0A245000003C0005004500060048AE
:10126F00E4FF740C2FF582E43464F583E0C3940833
:10127F004003021320740C2FF582E43464F583E0ED
:10128F00C39404504478C2C000E2FE740C2FF58260
:10129F00E43464F583E025E0FDF87403088002C3AD
:1012AF0033D8FCF45ED000F278C2C000E2FE740CBA
:1012BF002FF582E43464F583E025E0FDF87403082C
:1012CF008002C333D8FC02148278C3C000E2FE74DC
:1012DF000C2FF582E43464F583E024FC25E0FDF85F
:1012EF007403088002C333D8FCF45ED000F278C3D5
:1012FF00C000E2FE740C2FF582E43464F583E02421
:10130F00FC25E0FDF87403088002C333D8FC0214F7
:10131F0082740C2FF582E43464F583E0C394085093
:10132F00030213E6740C2FF582E43464F583E0C3F3
:10133F00941040030213E6740C2FF582E43464F525
:10134F0083E0C3940C504878D2C000E2FE740C2F97
:10135F00F582E43464F583E024F825E0FDF87403A6
:10136F00088002C333D8FCF45ED000F278D2C000FC
:10137F00E2FE740C2FF582E43464F583E024F82543
:10138F00E0FDF87403088002C333D8FC021482789E
:10139F00D3C000E2FE740C2FF582E43464F583E0D1
:1013AF0024F425E0FDF87403088002C333D8FCF45D
:1013BF005ED000F278D3C000E2FE740C2FF582E409
:1013CF003464F583E024F425E0FDF874030880020B
:1013DF00C333D8FC021482740C2FF582E43464F505
:1013EF0083E0C39414504778E2C000E2FE740C2FE0
:1013FF00F582E43464F583E024F025E0FDF874030E
:10140F00088002C333D8FCF45ED000F278E2C0004B
:10141F00E2FE740C2FF582E43464F583E024F025AA
:10142F00E0FDF87403088002C333D8FC804578E3ED
:10143F00C000E2FE740C2FF582E43464F583E024DF
:10144F00EC25E0FDF87403088002C333D8FCF45E8A
:10145F00D000F278E3C000E2FE740C2FF582E43482
:10146F0064F583E024EC25E0FDF87403088002C3E3
:10147F0033D8FC4ED000F20FEF64046003021271F8
:01148F00223A
:03005D000221D9A4
:1021D900C0E0C0F0C083C082C0D075D000C000C0CC
:1021E90001C002C003C004C005C006C0077881E26F
:1021F90030E607E24440F2121DEED007D006D005C2
:10220900D004D003D002D001D000D0D0D082D08366
:05221900D0F0D0E0321E
:1020FF00D2AF43AB0843B6C0907132E04440F043D7
:10210F00AB087877743FF208744BF2787A7430F238
:10211F00788914F27871744FF2187427F278727408
:10212F00A8F2087410F208E4F208F208F2787E744C
:0F213F00D0F2087404F208741EF2087402F2223F
:03003F0002214E4D
:10214E00C0E0C0F0C083C082C0D075D000C000C057
:10215E0001C002C003C004C005C006C00790715381
:10216E00E030E707E04480F0122700D007D006D019
:10217E0005D004D003D002D001D000D0D0D082D070
:06218E0083D0F0D0E03226
:101A2200E4FBEB25E025E0244AF582E43424F58347
:101A3200740193FF740C2BF582E43464F583EFF0A8
:101A4200EB25E025E0244CF582E43424F583E4938D
:101A5200FE740193FFEB25E02420F582E43464F563
:101A620083EEF0A3EFF0EB25E024F8F582E4346393
:101A7200F583E4F0A37441F0E47F01FEFDFC740CF5
:101A82002BF582E43464F583E0F9F81210E3E53FC4
:101A92004FFFE53E4EFEE53D4DFDE53C4C8F3F8E52
:101AA2003E8D3DF53C0BEB64046003021A241212D6
:071AB2006F1219870220FFEB
:101EC50075D9DD12000FD281D2A67FB87E0B7D00B9
:101ED5007C001224E8121F1C300B2DC20B7B017AEB
:101EE5006379C490642B1211A77BFF7A2479301291
:101EF500079F7E007F327D007B017A6379C41211D2
:101F0500F0E49063F6F0A3F0B2A67FF47E017D00C5
:071F15007C001224E880C1EA
:101B30004160300142603100004160330041603457
:0E1B400000416035004160367F426037FFFF94
:10232200E4F561AE3EAD3DAC3C853F178E168D1592
:102332008C14787EE254FCF2E24514F218E515F2B0
:1023420018E516F218E517F2787FE254FBF2E25430
:0D235200FB4404F2E24401F27F01021C6E24
:100DD80090601FEFF0E0FF2400F582E43464F583AF
:100DE800E004F074082FF582E43464F583E4F074C9
:100DF800002FF582E43464F583E0C3956350030261
:100E0800102990601FE0FB2400F582E43464F58328
:100E1800E4F09024459364016003020FDA7F01FE39
:100E2800FDFC740C2BF582E43464F583E0F9F812C8
:100E380010E3E51F4FF51FE51E4EF51EE51D4DF5A8
:100E48001DE51C4CF51CAF1FAE1EAD1DFC78011234
:100E580010D0EF5455FBEE5455FAED5455F9EC54B7
:100E680055F8C3E51F9BF53BE51E9AF53AE51D9934
:100E7800F539E51C98F538AF3BAE3AAD39FC780248
:100E88001210D0EF5433FBEE5433FAED5433F9EC2F
:100E98005433F8E53B5433FFE53A5433FEE539540F
:100EA80033FDE5385433FCEB2FF53BEA3EF53AE9E0
:100EB8003DF539E83CF538AF3BAE3AAD39FC78043E
:100EC8001210D0EF253BFFEE353AFEED3539FDEC3B
:100ED8003538FCEF540FF53BEE540FF53AED540F4F
:100EE800F539EC540FF538AF3BAE3AAD39FC78081C
:100EF8001210D0EF253BFFEE353AED3539FDEC35D4
:100F080038EFF53BE4F53AEDF539E4F538AE3AACAF
:100F18003878101210D0EF253BFFEE353AFEEFF58A
:100F28003BEEF53AE4F539F53890601FE025E0240A
:100F380010F582E43464F583E0FEA3E0D39553EE24
:100F48009552402490601FE0FF25E02410F582E4CC
:100F58003464F583E0F552A3E0F553740C2FF58261
:100F6800E43464F583E0F564902445E493FFE4FCFD
:100F7800FDFEAB3BAA3AA939A838D31210BF40529C
:100F8800AF650565D3EF9403748094805003021015
:100F980029E4F565F51FF51EF51DF51C7F01FEFD1D
:100FA800FCA964A8011210E38F1B8E1A8D198C18E6
:100FB800E47F01FEFDFCA8011210E38F338E328D11
:100FC800318C30E4F552F553756420121CF2433726
:100FD8000222E4F5657F01FEFDFC90601FE0FB2422
:100FE8000CF582E43464F583E0F9F81210E3E51BAC
:100FF8004FF51BE51A4EF51AE5194DF519E5184C8C
:10100800F518E47F01FEFDFCA8031210E3E5334F59
:10101800F533E5324EF532E5314DF531E5304CF535
:02102800302274
:100A9900E4F566902449E493FFE566C39F400302A9
:100AA9000DD7E56625E02400F582E4346085828A65
:100AB9007F548F8B7E0E8E8C758903758889E566C8
:100AC90025E02400F582E4346085828A8F8B758C59
:100AD90012758904758889E56625E02410F582E494
:100AE9003460F583E0FCA3E0C3950FEC950E502E1E
:100AF900E56625E02428F582E43460F583E0FCA36B
:100B0900E0C39513EC95125015AF600560EF9402A0
:100B190074809480400BE4F5605337FD8003E4F55D
:100B290060E53730E125E56625E02410F582E434F7
:100B390064F583E4F0A3F0E56625E02418F582E482
:100B49003464F583E4F0A3F0020BE7E56625E024BD
:100B590010F582E4346085828A8E8B758C0A7589DA
:100B6900267588892088FDE5F130E00875F107E4EC
:100B7900F50AF50BAE0AE50B7802C333CE33CED8AE
:100B8900F9FFE56625E02410F582E43464F583EE87
:100B9900F0A3EFF0E56625E02428F582E4346085CA
:100BA900828A758B12758C0A7589277588892088C0
:100BB900FDE5F130E00875F107E4F50AF50BAE0A39
:100BC900E50B7802C333CE33CED8F9FFE56625E0CD
:100BD9002418F582E43464F583EEF0A3EFF0E566BA
:100BE90025E02420F582E43464F583E0FEA3E0786F
:100BF90002CEC313CE13D8F9F5518E50E56625E020
:100C09002410F582E43464F583E0FEA3E0FF902428
:100C190041E493FC740193FDC3EF9DEE9C4017E5FD
:100C29006625E02418F582E43464F583E0FEA3E048
:100C3900C39DEE9C50028068E56625E02410F5828C
:100C4900E43464F583E0FEA3E0C39551EE9550408A
:100C59001CE56625E02418F582E43464F583E0FE9A
:100C6900A3E0C39551EE95504003020CF37404259B
:100C790066F582E43464F583E004F074042566F5CE
:100C890082E43464F583E0FF902446E493FEEFD3D5
:100C99009E406474042566F582E43464F583E4F0C7
:100CA900E56625E02408F582E43460F583E0FEA3D7
:100CB900E0FFE56625E02410F582E43460F583EE73
:100CC900F0A3EFF0E56625E02420F582E43460F531
:100CD90083E0FEA3E0FFE56625E02428F582E434FD
:100CE90060F583EEF0A3EFF0800D74042566F582BC
:100CF900E43464F583E4F0E56625E02408F582E44C
:100D0900346085828AE56625E02400F582E4346052
:100D190085828B758C0A7589207588CB2088FDE5BD
:100D2900F130E00875F107E4F50AF50BE56625E011
:100D39002408F582E4346085828A758B547F0E8F8E
:100D49008C7589237588897E0A8E8A8F8BE566253D
:100D5900E02408F582E4346085828CE4F58975889D
:100D690029E56625E02420F582E4346085828AE558
:100D79006625E02400F582E4346085828B8E8C75CB
:100D890089207588CB2088FDE5F130E00875F107E9
:100D9900E4F50AF50BE56625E02420F582E43460E4
:100DA90085828A758B547F0E8F8C75892475888905
:100DB900758A0A8F8BE56625E02420F582E4346084
:0F0DC90085828CE4F5897588290566020A9C22CB
:10149000E4F566902449E493FFE566C39F400302A8
:1014A0001648E56625E02420F582E43464F583E0FF
:1014B000FEA3E07802CEC313CE13D8F9F5518E50B7
:1014C000E56625E02410F582E43464F583E0FEA3AC
:1014D000E0D39551EE9550402EE56625E02418F5B1
:1014E00082E43464F583E0FEA3E0D39551EE955099
:1014F000401574082566F582E43464F583E4F0AFA2
:1015000066120DD8021643902448E493FFC3E551B8
:101510009FFFE5509400FED3EF9400EE940040024C
:1015200080047E007F00E56625E02410F582E43427
:1015300064F583E0FCA3E0C39FEC9E4003021636F3
:10154000902448E493FFC3E5519FFFE5509400FECB
:10155000D3EF9400EE9400400280047E007F00E50B
:101560006625E02418F582E43464F583E0FCA3E00A
:10157000C39FEC9E400302163674002566F582E494
:101580003464F583E4F074082566F582E43464F588
:1015900083E004F074082566F582E43464F583E0A2
:1015A000C39563500302164374082566F582E4343C
:1015B00064F583E4F07F01FEFDFC740C2566F58282
:1015C000E43464F583E0F9F81210E312108EE51F9D
:1015D0005FF51FE51E5EF51EE51D5DF51DE51C5C56
:1015E000F51CE47F01FEFDFCA966A8011210E312C0
:1015F000108EE5335FF533E5325EF532E5315DF5AA
:1016000031E5305CF530E47F01FEFDFC740C2566AD
:10161000F582E43464F583E0F9F81210E312108ED9
:10162000E51B5FF51BE51A5EF51AE5195DF519E591
:10163000185CF518800D74082566F582E43464F5AD
:0916400083E4F005660214932214
:101CF200E4F566902449E493FFE566C39F506EE5E0
:101D02006625E02410F582E43464F583E4F0A3F060
:101D1200E56625E02418F582E43464F583E4F0A353
:101D2200F0E56625E02408F582E43460F583E0FE00
:101D3200A3E0FFE56625E02410F582E43460F58334
:101D4200EEF0A3EFF0E56625E02420F582E43460AE
:101D5200F583E0FEA3E0FFE56625E02428F582E4B2
:0E1D62003460F583EEF0A3EFF0056680862274
:101B4F00E4F566902449E493FFE566C39F506790E0
:101B5F006030E0FF7E00C39410748094805053EF88
:101B6F009408748094804025E56625E02400F58272
:101B7F00E43460F583E0FEA3E0FFE56625E024088A
:101B8F00F582E43460F583EE8FF0121055E566258B
:101B9F00E02400F582E43460F583E0FEA3E0FFE586
:101BAF006625E02420F582E43460F583EE8FF01291
:101BBF0010550566808D906030E0C394107480944A
:101BCF008040054337048006906030E004F07F01C9
:031BDF00021C6E77
:101D7000E4FFFEFDFCAB1BAA1AA919A818C3121098
:101D8000BF6063906032E004F07006906031E00460
:101D9000F090243DE493FE740193FF4E602ED390A7
:101DA0006032E09F906031E09E4021E4F0A3F0F5C6
:101DB0001FF51EF51DF51CF533F532F531F530F53F
:101DC0001BF51AF519F518C20A021CF290243FE41B
:101DD00093FE740193FFD3906032E09F906031E0F6
:0D1DE0009E400AD20A22E4906031F0A3F088
:011DED0022D3
:05164900906452EFF077
:10164E00A3E0FCA3E0FDA3E0FEA3E0F52E8E2D8D1E
:10165E002C8C2B7884E2F50A08E2F50B758A087556
:10166E008B2B758C2775881D2088FDE4FFFEFDFCF5
:10167E00AB2AAA29A928A827D31210A94006AC275D
:10168E00A8048013AF2AAE29AD28AC2712109BAB4D
:10169E0007AA06A905A804906037E0FEA3E0FFE4C0
:1016AE00FCFDC31210A95041E4FFFEFDFCAB2AAABB
:1016BE0029A928A8271210A94006AF2AAE29800B07
:1016CE00AF2AAE29AD28AC2712109B906037EEF0F2
:1016DE00A3EFF0906452E025E024F8F582E4346341
:1016EE00F583E0A3E0906036F090243AE493FE7424
:1016FE000193FFD3906038E09F906037E09E501BBF
:10170E00906452E025E024F8F582E43463F583E03A
:10171E00A3E0906036F09060338079E4FFFEFDFC2C
:10172E00AB2AAA29A928A827D31210A9403490645D
:10173E0052E0FF25E024F8F582E43463F583E0FC03
:10174E00A3E0D39400EC9400404DEF25E024F8F58F
:10175E0082E43463F58374FFF5F012105590603413
:10176E008032906452E0FF25E024F8F582E4346381
:10177E00F583E0FCA3E0C3947FEC94005019EF25B1
:10178E00E024F8F582E43463F583E475F001121079
:10179E00559060357401F0906034E064017011A3CF
:1017AE00E06401700B906034F0A3F090603304F0AD
:1017BE00906033E064017035906036E0FF906452C3
:1017CE00E025E024F8F582E43463F583E4F0A3EF3A
:1017DE00F074FF906037F0A3F0906036747FF0E401
:0F17EE00906034F0A3F0906033F07F01227F0011
:0117FD0022C9
:101E6300E4906451F090243412110278011210E3CB
:101E7300906453121153AF61121649EF602205614A
:101E8300E53730E4095337EF9064517401F090243F
:101E930049E493FFE561C39F4006E4F561433710CE
:101EA300C39024387401939562E49394004008909E
:101EB3006451E064017005D209022322E4FF121C7D
:011EC3006EB0
:011EC40022FB
:101C6E00EF70607F01FEFDFC740C2561F582E4349B
:101C7E0064F583E0F9F81210E38F178E168D158C2C
:101C8E0014787EE254FCF2E24514F218E515F218CF
:101C9E00E516F218E517F2E56125E024F8F582E481
:101CAE003463F583E0A3E0547FFF7878E254804FED
:101CBE00F2787FE254FBF2E254FB4404F2E2440178
:101CCE00F2801CE56125E024F8F582E43463F583A7
:101CDE00E0A3E0547FFF7878E254804FF2787FE201
:041CEE004402F22298
:10198700E4906488F0A3F0906488E0FEA3E0FFC3CE
:101997009488EE94035031EF2499FFEE340A8F8236
:1019A700F583E493FF906489E02439FD906488E02F
:1019B70034608D82F583EFF0906489E004F070C79E
:0819C700906488E004F080BF89
:1019CF009063C17401F0A37460F0A37439F0E4F56F
:1019DF0061F537F536F535F534C209C20AF51FF54D
:1019EF001EF51DF51CF533F532F531F530F51BF508
:1019FF001AF519F51890244393FF902447E493FEAA
:101A0F00A807088002C333D8FCF563756420E4FF90
:031A1F00021C6E38
:101DEE007884E2F50A08E2F50BAE0A7803CEC31347
:101DFE00CE13D8F97802C333CE33CED8F9FFE561CE
:101E0E0025E02400F582E43460F583EEF0A3EFF0D4
:101E1E0020090F90243CE4937005D209022322027C
:101E2E001E630561902449E493FFE561C39F401F43
:101E3E00787FE254FBF2E254FB4404F2E24401F2F6
:101E4E00E4F561E53720E203021B4F433701227FA1
:051E5E0001121C6E22C0
:052700000562021D70DE
:1024C800E53730E01A9063C1A3E0FAA3E0F91211EE
:1024D800EA121490E4F5617F01121C6E5337FE2254
:101BEE00020051E493A3F8E493A34003F68001F2BC
:101BFE0008DFF48029E493A3F85407240CC8C333F8
:101C0E00C4540F4420C8834004F456800146F6DFC6
:101C1E00E4800B0102040810204080901AB9E47E83
:101C2E00019360BCA3FF543F30E509541FFEE493BB
:101C3E00A360010ECF54C025E060A840B8E493A382
:101C4E00FAE493A3F8E493A3C8C582C8CAC583CAAD
:101C5E00F0A3C8C582C8CAC583CADFE9DEE780BE65
:011B4E000096
:10102A00BB010689828A83E0225002E722BBFE02C4
:09103A00E32289828A83E49322F7
:10104300BB010689828A83F0225002F722BBFE018C
:02105300F32286
:10105500C5F0F8A3E028F0C5F0F8E5821582700226
:061065001583E038F022C3
:10106B00A3F8E0C5F025F0F0E58215827002158338
:06107B00E0C838F0E82295
:0D108100EF2BFFEE3AFEED39FDEC38FC22BE
:0D108E00CFF4CFCEF4CECDF4CDCCF4CC22F7
:0E109B00C3E49FFFE49EFEE49DFDE49CFC2266
:1010A900EB9FF5F0EA9E42F0E99D42F0EC6480C8BE
:0610B90064809845F0225E
:1010BF00EB9FF5F0EA9E42F0E99D42F0E89C45F087
:0110CF0022FE
:1010D000E8600FECC313FCED13FDEE13FEEF13FFFE
:0310E000D8F12222
:1010E300E8600FEFC333FFEE33FEED33FDEC33FC6B
:0310F300D8F1220F
:0C10F600E0FCA3E0FDA3E0FEA3E0FF226D
:10110200E493FC740193FD740293FE740393FF2233
:0C111200E0F8A3E0F9A3E0FAA3E0FB2260
:10111E007401FF3395E0FEFDFCA3A3A3E0CF2FF0F7
:10112E00E582158270021583E0CE3EF0E5821582CF
:10113E0070021583E0CD3DF0E582158270021583B5
:05114E00E0CC3CF022A2
:0C115300ECF0A3EDF0A3EEF0A3EFF0220F
:10115F00A8828583F0D083D0821211761211761275
:10116F001176121176E473E493A3C583C5F0C5839A
:10117F00C8C582C8F0A3C583C5F0C583C8C582C8DA
:01118F00223D
:10119000F8E0FBA3A3E0F925F0F0E58215827002E8
:0711A0001583E0FA38F0228C
:0911A700EBF0A3EAF0A3E9F02249
:1011B000D083D082E4937012740193700DA3A39333
:1011C000F8740193F5828883E4737402936C70124F
:1011D0007403936D700C7404936E70067405936FB2
:0A11E00060DDA3A3A3A3A3A380CAAC
:0611EA008A838982E47390
:10073400E522242BF582E43464F583E0052222903B
:10074400642830070390642BE475F00112119002C1
:10075400102A2000E97F2ED2008018EF540F249035
:10076400D43440D4FF30040BEF24BFB41A00500338
:100774002461FFE523600215230526E526700205A2
:100784002530070E906428E475F001121190EF02F1
:1007940010430226567403D2078003E4C207F522ED
:1007A4009064281211A7E4F523F525F526E52360C6
:1007B400077F2012077780F57524FFC201C200C2AB
:1007C40002C203C205C206C208120743FF700D30FD
:1007D40007057F00120788AF26AE2522B4255FC225
:1007E400D5C204120743FF24D0B40A00501A75F08E
:1007F4000A782330D50508B6FF0106C6A426F620DC
:10080400D5047002D20380D924CFB41A00EF500467
:10081400C2E5D204020989D20180C6D20080C0D2C6
:100824000280BCD2D580BAD20580B47F201207776B
:100834002002077401B5230040F1120734FF1207A8
:10084400770207B1D208D2068095120734FB12074B
:1008540034FA120734F94A4B7006795A7A0A7BFF44
:1008640020022EE523602A7E008E827583001212F8
:100874001C60060EEE652470F0C2D5EBC0E0EAC041
:10088400E0E9C0E0EE1209D0D0E0F9D0E0FAD0E01F
:10089400FB12102AFF60AAEBC0E0EAC0E0E9C0E066
:1008A400120777D0E02401F9D0E03400FAD0E0FB5D
:1008B400E5240460DCD524D980877BFF7A0979CCD0
:1008C400D202809C791080027908C206C20880088E
:1008D400D2D5790A8004790AC2D5E524047002F5D8
:1008E40024E4FAFDFEFF120734FC7B0820011312F6
:1008F4000734FD7B1030000A120734FE120734FF60
:100904007B20EC3382D592D55013C3E43000069F8C
:10091400FFE49EFEE42001039DFDE49CFCE4CBF88F
:10092400C201EC700CCFCECDCCE824F8F870F38083
:1009340017C3EF33FFEE33FEED33FDEC33FCEB3343
:10094400FB994002FB0FD8E9EB300105F8D0E0C475
:1009540048B201C0E00AEC4D4E4F78207B0070C2D3
:10096400EAB5240040BCC0E01209D2D0F0D0E020A7
:100974000104C4C0E0C4B201C0F0120760D0F0D5D5
:10098400F0EB0207B1121249084E5308C858081F69
:100994004C081B4208CC4F08D44408D449083443BB
:0809A40008DA5508BE4608BE42
:1009AC004508BE470A7A5008232D08272E084A2BE3
:1009BC00082B230848200A632A07E3480000084252
:1009CC003F3F3F00790AA2D5200314300509B91026
:1009DC00020404B9080104A2D52006025001042027
:1009EC0002689202B523005034C0E07F2030031916
:1009FC007F30A20272067205500F120A29C202C27F
:100A0C0006C205C2087F30800F300503E9C0E01232
:100A1C000777300503D0E0F9D0E0B523CC300517CB
:100A2C007F30B9100C1207777F583004077F78801D
:100A3C0003B908031207773002057F2D0207777F71
:100A4C00202008F87F2B2006F322920280CF286EFC
:100A5C00756C6C2900D2011207343001F8C2017890
:100A6C002330D50108F60207E32D504349581207ED
:100A7C00342403B405004001E4900A75931207680E
:0D0A8C00743A120768D2037523040208C8EB
:1011F000EF4E6012EF60010EEDBB010B89828A8316
:10120000F0A3DFFCDEFA2289F05007F709DFFCA922
:0C121000F022BBFEFCF309DFFCA9F02279
:10121C00BB010CE58229F582E5833AF583E0225087
:10122C0006E92582F8E622BBFE06E92582F8E222D1
:0D123C00E58229F582E5833AF583E49322EB
:10124900D083D082F8E4937012740193700DA3A334
:1012590093F8740193F5828883E473740293686048
:06126900EFA3A3A380DF48
:00000001FF
