:0300000002069263
:0C069200787FE4F6D8FD7581200206D9BF
:0C000300000000000000000000000000F1
:0B08C800EF1FAC0670011E4C70F62202
:10083F0090602812042190602874FF1203EEEC4D93
:0E084F004E4F60097FAA7E051208C880E9227C
:1005B100907120E04480F07F057E001208C87F0022
:1005C1007E007D007C0012083F75A75575AC5C90DC
:1005D10071327450F09071307403F0907136742F51
:1005E100F090715C7403F090715BE054FCF07F1843
:1005F100EF2466FDE434718D82F583E4F00FEFB4EE
:1006010033EE904011E4935407FF90711CE054F8CD
:100611004FF0904017E493547FFF90711DE0548098
:100621004FF0904010E493FF5401C43333335480AE
:10063100FE907123E0547F4EF0EFC313543F4440CA
:10064100FFA3E054804FF0904012E493FF540FFE5B
:10065100907146E054F04EF0EFC4540FFF90714F8B
:10066100E054F04FF0904013E493543FFF907140F9
:10067100E054C04FF0904014E493907126F0904004
:1006810015E493907128F0904016E49390712AF04C
:010691002246
:05085D0042602F0000C5
:10087A0043A820D2AF75D10178957401F218747625
:0B088A00F2789174A0F21874FDF222C5
:03001E0002071EB8
:10071E00C0E0C0F0C083C082C0D075D000C00078E9
:09072E0091E230E723E24480F27D
:1007370090602FE475F001120273C3906030E0946B
:0F0747006490602FE094004006E4F0A3F0D2002D
:0D075600D000D0D0D082D083D0F0D0E032DF
:1007CC0078E3E254F3F2E24404F29071937410F083
:1007DC0075D10278A17403F218E4F278A3F218F23E
:0A07EC00789D74A0F21874E2F22266
:0D08AF009071937410F0789CE24402F222E4
:0E000F00789CE254FCF2907193E4F0C2A522BA
:10076300906028EFF07E007C037D0012045EE47B42
:10077300FFFAF9F812032F78081203C178A3EFF2F6
:10078300906028E0FF7E007C037D0012045EE47B22
:0C079300FFFAF9F812032F78A2EFF2220F
:10079F0078D3E24430F278E2E24430F2786AE2440D
:1007AF0078F27591FF907123E054D8F0E0445BF03C
:0D07BF009071227407F0439E704399402210
:1007F6007869E254B7F2539940EFB4010543990E74
:100806008006EF70034399127869E24448F27F014B
:090816007E007D007C0002083F19
:10048B00E490601DF0A3F0A3F090602012042D0007
:10049B00000000E4906024F0A3F074FF906026F05D
:1004AB00A3F0E490601DF07869E24401F2786BE20E
:1004BB0030E1FAAF93EF75F010A4FFE594C4540F3D
:1004CB00FDEF4DFF90601EE5F0F0A3EFF07402F22C
:1004DB0090601DE0C39402405C906024E0FEA3E0BA
:1004EB00FFD390601FE09F90601EE09E400CE0FFEA
:1004FB00A3E0906024CFF0A3EFF0906026E0FEA382
:10050B00E0FFC390601FE09F90601EE09E500CE0E8
:10051B00FFA3E0906026CFF0A3EFF09060201203D2
:10052B00E090601EE0FEA3E0FFE4FCFD1202899068
:10053B00602012042190601DE004F0E0641460035D
:10054B000204B29060201203D4C006C0079060244E
:10055B00E0FEA3E0FBAA06E4F9F8D007D0061202EE
:10056B00969060201204219060201203D4C006C024
:10057B0007906026E0FEA3E0FBAA06E4F8D007D0C4
:10058B00061202969060201204219060201203D470
:10059B0078041203C190601EEEF0A3EFF090601E82
:0505AB00E0FEA3E0FFEB
:0105B0002228
:0808D3008FD7E5D430E4FB22CD
:1008950078C2E254CFF2E24410F29071807404F011
:0A08A50075D60175D59F75D210229B
:10086200C101C1005060070000000000000000004C
:07087200000000000000007F
:10002100E490602CF078A3E2FE18E2FDEDFF906011
:1000310002EEF0A3EFF09060057403F0A37401F0F9
:10004100906017E0FFA3E0906000CFF0A3EFF0D342
:10005100906018E09415906017E0940B500990603F
:1000610000E475F0468046D3906018E094F090600B
:1000710017E0940B5009906000E475F032802ED3A4
:10008100906018E09474906017E0940C50099060AF
:1000910000E475F0238016D3906018E094FE906020
:1000A10017E0940C906000E4500875F0141202738C
:1000B100803475F00F120273906017E0FEA3E0FF29
:1000C1007C007D9D12045EE47BE87A03F9F812035B
:1000D1002FEF24F6FFEE34FDFEC3906001E09FF0A8
:1000E100906000E09EF0906000E475F032120273BF
:0F00F100C3906018E09427906017E0940E40339E
:10010000E490602DF0A3F0D3906001E09402906041
:1001100000E09400400774FFF5F012027390602D28
:10012000E475F00112027390602DE07004A3E064A6
:030130007870D410
:10013300906005E0FEA3E0FFE4FCFD7BA27ADF799B
:1001430005F81202A4E47B93FAF9F812032FC00610
:10015300C007906000E0FEA3E0FBAA06E4F9F8D034
:1001630007D00612032FC3906006E09FFF9060053F
:10017300E09E906019F0A3EFF0906005E0FEA3E02D
:10018300FFC390601AE09F906019E09E4004E4F082
:10019300A3F0906004E004F0E05407F0E025E024CD
:1001A30007F582E43460F583E0FEA3E0FF90601975
:1001B300E0FCA3E0FDEF2DFFEE3CC313FEEF13FFC6
:1001C300906004E025E02407F582E43460F583EED3
:1001D300F0A3EFF0E4906019F0A3F090602CF0909E
:1001E300602CE0FFC394085022EF25E02407F5823A
:1001F300E43460F583E0FEA3E0FF906019EE8FF036
:1002030012027390602CE004F080D4906019E0FE39
:10021300A3E07803CEC313CE13D8F9F0EE906019A0
:10022300F030003FC200906002E0FEA3E0FFD390F5
:10023300601AE09F906019E09E4009906002E475A7
:10024300F001801C906002E0FEA3E0FFC390601AFF
:10025300E09F906019E09E500A90600274FFF5F0F1
:0F026300120273906002E078A3F2E0A3E018F2B9
:010272002269
:0C08BC0012079F12087A1207CC02000FEE
:10081F001205B175D9DD75D95590715EE054FEF0B2
:10082F0075D9BB1208BC7F011207631208AF80FE97
:10069E0002081FE493A3F8E493A34003F68001F24B
:1006AE0008DFF48029E493A3F85407240CC8C3335D
:1006BE00C4540F4420C8834004F456800146F6DF2C
:1006CE00E4800B010204081020408090085DE47E57
:1006DE00019360BCA3FF543F30E509541FFEE49321
:1006EE00A360010ECF54C025E060A840B8E493A3E8
:1006FE00FAE493A3F8E493A3C8C582C8CAC583CA13
:10070E00F0A3C8C582C8CAC583CADFE9DEE780BECA
:01087900007E
:10027300C5F0F8A3E028F0C5F0F8E5821582700216
:060283001583E038F022B3
:0D028900EF2BFFEE3AFEED39FDEC38FC22C4
:0E029600C3EF9BFFEE9AFEED99FDEC98FC2263
:1002A400E88FF0A4CC8BF0A42CFCE98EF0A42CFCF9
:1002B4008AF0EDA42CFCEA8EF0A4CDA8F08BF0A477
:1002C4002DCC3825F0FDE98FF0A42CCD35F0FCEBD6
:1002D4008EF0A4FEA9F0EB8FF0A4CFC5F02ECD399B
:0F02E400FEE43CFCEAA42DCE35F0FDE43CFC2208
:1002F30075F008758200EF2FFFEE33FECD33CDCCC2
:1003030033CCC58233C5829BED9AEC99E582984044
:100313000CF582EE9BFEED9AFDEC99FC0FD5F0D621
:10032300E4CEFBE4CDFAE4CCF9A88222B800C1B94B
:100333000059BA002DEC8BF084CFCECDFCE5F0CB89
:10034300F97818EF2FFFEE33FEED33FDEC33FCEBC2
:1003530033FB10D703994004EB99FB0FD8E5E4F97D
:10036300FA227818EF2FFFEE33FEED33FDEC33FC6A
:10037300C933C910D7059BE99A4007EC9BFCE99A5E
:10038300F90FD8E0E4C9FAE4CCFB2275F010EF2FA3
:10039300FFEE33FEED33FDCC33CCC833C810D707A3
:1003A3009BEC9AE899400AED9BFDEC9AFCE899F8DE
:0E03B3000FD5F0DAE4CDFBE4CCFAE4C8F92271
:1003C100E8600FECC313FCED13FDEE13FEEF13FF1A
:0303D100D8F1223E
:0C03D400E0FCA3E0FDA3E0FEA3E0FF229C
:0C03E000E0F8A3E0F9A3E0FAA3E0FB22A0
:1003EC007401FF3395E0FEFDFCA3A3A3E0CF2FF037
:1003FC00E582158270021583E0CE3EF0E58215820F
:10040C0070021583E0CD3DF0E582158270021583F4
:05041C00E0CC3CF022E1
:0C042100ECF0A3EDF0A3EEF0A3EFF0224E
:10042D00A8828583F0D083D0821204441204441232
:10043D000444120444E473E493A3C583C5F0C58357
:10044D00C8C582C8F0A3C583C5F0C583C8C582C819
:01045D00227C
:10045E00EC8EF0A4CCC5F0CCCDF8EFA4CEC5F02D2B
:10046E00FDE43CFCE8A42EC8C5F03DFDE43CFCEFE9
:0D047E00A4FFE5F028FEE43DFDE43CFC2277
:00000001FF
