:03000000020AB041
:0C0AB000787FE4F6D8FD758122020AF779
:0C000300000000000000000000000000F1
:0B0DDA00EF1FAC0670011E4C70F622EB
:100D5D0090600012053490600074FF120501EC4D97
:0E0D6D004E4F60097FAA7E05120DDA80E92242
:1009CF00907120E04480F07F057E00120DDA7F00E9
:1009DF007E007D007C00120D5D75A75575AC5C9097
:1009EF0071327450F09071307403F0907136742F2F
:1009FF00F090715C7403F090715BE054FCF07F1821
:100A0F00EF2466FDE434718D82F583E4F00FEFB4CB
:100A1F0033EE904011E4935407FF90711CE054F8AB
:100A2F004FF0904017E493547FFF90711DE0548076
:100A3F004FF0904010E493FF5401C433333354808C
:100A4F00FE907123E0547F4EF0EFC313543F4440A8
:100A5F00FFA3E054804FF0904012E493FF540FFE39
:100A6F00907146E054F04EF0EFC4540FFF90714F69
:100A7F00E054F04FF0904013E493543FFF907140D7
:100A8F00E054C04FF0904014E493907126F09040E2
:100A9F0015E493907128F0904016E49390712AF02A
:010AAF002224
:0A0C6F0042604500004260470000AB
:100D980043A820D2AF75D10178957401F218747602
:0B0DA800F2789174A0F21874FDF222A2
:03001E00020B3C96
:100B3C00C0E0C0F0C083C082C0D075D000C00078C7
:090B4C0091E230E723E24480F25B
:100B5500906045E475F001120386C3906046E09409
:0F0B650064906045E094004006E4F0A3F0D202F3
:0D0B7400D000D0D0D082D083D0F0D0E032BD
:100CCC0078E3E254F3F2E24404F29071937410F07E
:100CDC0075D10278A17403F218E4F278A3F218F239
:0A0CEC00789D74A0F21874E2F22261
:0D0DCD009071937410F0789CE24402F222C1
:0E000F00789CE254FCF2907193E4F0C2A522BA
:100BC600906000EFF07E007C037D00120571E47BEF
:100BD600FFFAF9F812044278081204D478A3EFF267
:100BE600906000E0FF7E007C037D00120571E47BCF
:0C0BF600FFFAF9F812044278A2EFF22294
:100C9F0078D3E24430F278E2E24430F2786AE24408
:100CAF0078F27591FF907123E054D8F0E0445BF037
:0D0CBF009071227407F0439E70439940220B
:100CF6007869E254B7F2539940EFB4010543990E6F
:100D06008006EF70034399127869E24448F27F0146
:090D16007E007D007C00020D5DF1
:1008A900E4906000F0A3F0A3F0906003120540000B
:1008B900000000E4906007F0A3F074FF906009F075
:1008C900A3F0E4906000F07869E24401F2786BE209
:1008D90030E1FAAF93EF75F010A4FFE594C4540F1B
:1008E900FDEF4DFF906001E5F0F0A3EFF07402F227
:1008F900906000E0C39402405C906007E0FEA3E0D2
:10090900FFD3906002E09F906001E09E400CE0FF01
:10091900A3E0906007CFF0A3EFF0906009E0FEA399
:10092900E0FFC3906002E09F906001E09E500CE000
:10093900FFA3E0906009CFF0A3EFF09060031204E9
:10094900F3906001E0FEA3E0FFE4FCFD12039C903C
:100959006003120534906000E004F0E06414600361
:100969000208D09060031204E7C006C00790600730
:10097900E0FEA3E0FBAA06E4F9F8D007D0061203CB
:10098900A99060031205349060031204E7C006C001
:1009990007906009E0FEA3E0FBAA06E4F8D007D0BF
:1009A900061203A99060031205349060031204E74C
:1009B90078041204D4906001EEF0A3EFF090600186
:0509C900E0FEA3E0FFC9
:0109CE002206
:080DE5008FD7E5D430E4FB22B6
:100DB30078C2E254CFF2E24410F29071807404F0EE
:0A0DC30075D60175D59F75D2102278
:100D3E006C65616420626174746572790A006C6915
:0F0D4E00746869756D20626174746572790A004A
:100C7900C108C103C104C102C106C105C107C1013F
:100C890050602F000000000000000000000000007C
:050C9900000000C10095
:10063C00E4906000F078A3E2FE18E2FDEDFF90601C
:10064C002AEEF0A3EFF090602D7403F0A37401F088
:10065C0090603FE0FFA3E0906028CFF0A3EFF0D3D1
:10066C00906040E0941590603FE0940B50099060CE
:10067C0028E475F0468046D3906040E094F090609A
:10068C003FE0940B5009906028E475F032802ED333
:10069C00906040E0947490603FE0940C500990603E
:1006AC0028E475F0238016D3906040E094FE9060AF
:1006BC003FE0940C906028E4500875F01412038607
:1006CC00803475F00F12038690603FE0FEA3E0FFCC
:1006DC007C007D9D120571E47BE87A03F9F8120425
:1006EC0042EF24F6FFEE34FDFEC3906029E09FF04C
:1006FC00906028E09EF0906028E475F0321203863A
:0F070C00C3906040E0942790603FE0940E40332C
:10071B00E4906001F0A3F0D3906029E09402906024
:10072B0028E09400400774FFF5F0120386906001F7
:10073B00E475F001120386906001E07004A3E0649D
:03074B007870D4EF
:10074E00906043E0FEA3E0FF7C007D0B120571A8D4
:10075E0004A905AA06AB0790602DE0FEA3E0FFE416
:10076E00FCFD1203B7C006C007906028E0FEA3E0B0
:10077E00FBAA06E4F9F8D007D006120442E47BBEC9
:10078E007A05F9F81203B7E47BD67A01F9F8120468
:10079E0042C390602EE09FFF90602DE09E906041DE
:1007AE00F0A3EFF090602DE0FEA3E0FFC390604257
:1007BE00E09F906041E09E4004E4F0A3F090602C36
:1007CE00E004F0E05407F0E025E0242FF582E43455
:1007DE0060F583E0FEA3E0FF906041E0FCA3E0FD46
:1007EE00EF2DFFEE3CC313FEEF13FF90602CE025C0
:1007FE00E0242FF582E43460F583EEF0A3EFF0E40D
:10080E00906041F0A3F0906000F0906000E0FFC3B4
:10081E0094085022EF25E0242FF582E43460F5830E
:10082E00E0FEA3E0FF906041EE8FF0120386906031
:10083E0000E004F080D4906041E0FEA3E07803CEA7
:10084E00C313CE13D8F9F0EE906041F030023FC2E0
:10085E000290602AE0FEA3E0FFD3906042E09F90FA
:10086E006041E09E400990602AE475F001801C9082
:10087E00602AE0FEA3E0FFC3906042E09F906041DB
:10088E00E09E500A90602A74FFF5F0120386906085
:0A089E002AE078A3F2E0A3E018F2CC
:0108A800222D
:100C3C0078D0E24402F278D2E254F3F27F017E00E3
:100C4C007D007C00120D5D209104D2088002C20848
:100C5C007BFF3008067A0D793E80047A0D794C12B0
:030C6C00008C22D7
:100C020078D2E254CFF2E24410F2907188E4F0C25A
:100C120092E2543FF2E24440F2A3E4F0C29308E2CB
:100C220054FCF2E24401F2A3E4F0C294E254F3F27F
:0A0C3200E24404F2A3E4F0C29522AC
:01001D0022C0
:100D1F0030041B20081890603FE0A3E090603FE094
:0E0D2F00A3E090603FE0A3E090603FE0A3E00F
:010D3D002293
:100D7B00120DB3120C9F120D98120CCC12000F7F98
:0D0D8B00017E007D007C00120D5D020C3C1D
:100B81001209CF75D9DD75D95590715EE054FEF02B
:100B910075D9BB120D7BC2087F01120BC6120DCD98
:100BA100E4FF120CF61208A990603FEEF0A3EFF0FB
:100BB1007F01120CF61208A9906043EEF0A3EFF04A
:050BC10012063C80DB80
:100ABC00020B81E493A3F8E493A34003F68001F2C4
:100ACC0008DFF48029E493A3F85407240CC8C3333B
:100ADC00C4540F4420C8834004F456800146F6DF0A
:100AEC00E4800B0102040810204080900C6FE47E1F
:100AFC00019360BCA3FF543F30E509541FFEE493FF
:100B0C00A360010ECF54C025E060A840B8E493A3C5
:100B1C00FAE493A3F8E493A3C8C582C8CAC583CAF0
:100B2C00F0A3C8C582C8CAC583CADFE9DEE780BEA8
:010C9E000055
:10038600C5F0F8A3E028F0C5F0F8E5821582700202
:060396001583E038F0229F
:0D039C00EF2BFFEE3AFEED39FDEC38FC22B0
:0E03A900C3EF9BFFEE9AFEED99FDEC98FC224F
:1003B700E88FF0A4CC8BF0A42CFCE98EF0A42CFCE5
:1003C7008AF0EDA42CFCEA8EF0A4CDA8F08BF0A463
:1003D7002DCC3825F0FDE98FF0A42CCD35F0FCEBC2
:1003E7008EF0A4FEA9F0EB8FF0A4CFC5F02ECD3987
:0F03F700FEE43CFCEAA42DCE35F0FDE43CFC22F4
:1004060075F008758200EF2FFFEE33FECD33CDCCAD
:1004160033CCC58233C5829BED9AEC99E582984030
:100426000CF582EE9BFEED9AFDEC99FC0FD5F0D60D
:10043600E4CEFBE4CDFAE4CCF9A88222B800C1B937
:100446000059BA002DEC8BF084CFCECDFCE5F0CB75
:10045600F97818EF2FFFEE33FEED33FDEC33FCEBAE
:1004660033FB10D703994004EB99FB0FD8E5E4F969
:10047600FA227818EF2FFFEE33FEED33FDEC33FC56
:10048600C933C910D7059BE99A4007EC9BFCE99A4A
:10049600F90FD8E0E4C9FAE4CCFB2275F010EF2F8F
:1004A600FFEE33FEED33FDCC33CCC833C810D7078F
:1004B6009BEC9AE899400AED9BFDEC9AFCE899F8CA
:0E04C6000FD5F0DAE4CDFBE4CCFAE4C8F9225D
:1004D400E8600FECC313FCED13FDEE13FEEF13FF06
:0304E400D8F1222A
:0C04E700E0FCA3E0FDA3E0FEA3E0FF2288
:0C04F300E0F8A3E0F9A3E0FAA3E0FB228C
:1004FF007401FF3395E0FEFDFCA3A3A3E0CF2FF023
:10050F00E582158270021583E0CE3EF0E5821582FA
:10051F0070021583E0CD3DF0E582158270021583E0
:05052F00E0CC3CF022CD
:0C053400ECF0A3EDF0A3EEF0A3EFF0223A
:10054000A8828583F0D083D08212055712055712F6
:100550000557120557E473E493A3C583C5F0C5831B
:10056000C8C582C8F0A3C583C5F0C583C8C582C805
:010570002268
:10057100EC8EF0A4CCC5F0CCCDF8EFA4CEC5F02D17
:10058100FDE43CFCE8A42EC8C5F03DFDE43CFCEFD5
:0D059100A4FFE5F028FEE43DFDE43CFC2263
:10002100E5082403F582E43460F583E005082290B5
:100031006000301003906003E475F0011205F602D0
:10004100059E2009E97F2ED2098018EF540F2490D4
:10005100D43440D4FF300D0BEF24BFB41A00500349
:100061002461FFE50960021509050CE50C70020524
:100071000B30100E906000E475F0011205F6EF02EE
:1000810005E4020DE57403D2108003E4C210F50803
:1000910090600012060DE4F509F50BF50CE5096019
:1000A100077F2012006480F5750AFFC20AC209C2E7
:1000B1000BC20CC20EC20FC211120030FF700D3004
:1000C10010057F00120075AF0CAE0B22B4255FC284
:1000D100D5C20D120030FF24D0B40A00501A75F0B9
:1000E1000A780930D50508B6FF0106C6A426F62010
:1000F100D5047002D20C80D924CFB41A00EF500479
:10010100C2E5D20D020276D20A80C6D20980C0D2DF
:100111000B80BCD2D580BAD20E80B47F201200648D
:10012100200B077401B5090040F1120021FF1200F4
:100131006402009ED211D20F8095120021FB1200A1
:1001410021FA120021F94A4B700679477A037BFFA5
:10015100200B2EE509602A7E008E82758300120530
:10016100B760060EEE650A70F0C2D5EBC0E0EAC0DA
:10017100E0E9C0E0EE1202BDD0E0F9D0E0FAD0E053
:10018100FB12059EFF60AAEBC0E0EAC0E0E9C0E017
:10019100120064D0E02401F9D0E03400FAD0E0FB91
:1001A100E50A0460DCD50AD980877BFF7A0279B938
:1001B100D20B809C791080027908C20FC21180088D
:1001C100D2D5790A8004790AC2D5E50A047002F50C
:1001D1000AE4FAFDFEFF120021FC7B08200A13123B
:1001E1000021FD7B1030090A120021FE120021FFBF
:1001F1007B20EC3382D592D55013C3E43009069F9E
:10020100FFE49EFEE4200A039DFDE49CFCE4CBF8A0
:10021100C20AEC700CCFCECDCCE824F8F870F38094
:1002210017C3EF33FFEE33FEED33FDEC33FCEB335D
:10023100FB994002FB0FD8E9EB300A05F8D0E0C486
:1002410048B20AC0E00AEC4D4E4F78207B0070C2E4
:10025100EAB50A0040BCC0E01202BFD0F0D0E020F5
:100261000A04C4C0E0C4B20AC0F012004DD0F0D5F7
:10027100F0EB02009E120616013B5301B558010C2A
:100281004C01084201B94F01C14401C14901214357
:0802910001C75501AB4601ABAA
:100299004501AB4703675001102D01142E01372B7F
:1002A90001182301352003502A00D0480000012FEE
:1002B9003F3F3F00790AA2D5200C14300E09B9102E
:1002C900020404B9080104A2D5200F025001042038
:1002D9000B68920BB509005034C0E07F20300C192F
:1002E9007F30A20B720F720E500F120316C20BC28F
:1002F9000FC20EC2117F30800F300E03E9C0E01229
:100309000064300E03D0E0F9D0E0B509CC300E1707
:100319007F30B9100C1200647F58300D077F788048
:1003290003B90803120064300B057F2D0200647FB6
:10033900202011F87F2B200FF322920B80CF286EFB
:10034900756C6C2900D20A120021300AF8C20A78A9
:100359000930D50108F60200D02D50434958120042
:10036900212403B405004001E4900362931200556F
:0D037900743A120055D20C7509040201B54A
:10059E00BB010689828A83E0225002E722BBFE025B
:0905AE00E32289828A83E493228E
:1005B700BB010CE58229F582E5833AF583E02250F9
:1005C70006E92582F8E622BBFE06E92582F8E22243
:0D05D700E58229F582E5833AF583E493225D
:1005E400BB010689828A83F0225002F722BBFE01F6
:0205F400F322F0
:1005F600F8E0FBA3A3E0F925F0F0E582158270028E
:070606001583E0FA38F02231
:09060D00EBF0A3EAF0A3E9F022EE
:10061600D083D082F8E4937012740193700DA3A373
:1006260093F8740193F5828883E473740293686087
:06063600EFA3A3A380DF87
:00000001FF
